{
  "address": "0x15F7EF03af6cc050f256d2D250d1b7e37A2D0431",
  "abi": [
    {
      "inputs": [],
      "stateMutability": "nonpayable",
      "type": "constructor"
    },
    {
      "inputs": [],
      "name": "getMyRoot",
      "outputs": [
        {
          "internalType": "bytes32",
          "name": "",
          "type": "bytes32"
        }
      ],
      "stateMutability": "view",
      "type": "function"
    },
    {
      "inputs": [
        {
          "internalType": "address",
          "name": "_address",
          "type": "address"
        }
      ],
      "name": "getRoot",
      "outputs": [
        {
          "internalType": "bytes32",
          "name": "",
          "type": "bytes32"
        }
      ],
      "stateMutability": "view",
      "type": "function"
    },
    {
      "inputs": [
        {
          "internalType": "bytes32",
          "name": "_root",
          "type": "bytes32"
        }
      ],
      "name": "setRoot",
      "outputs": [],
      "stateMutability": "nonpayable",
      "type": "function"
    },
    {
      "inputs": [
        {
          "internalType": "bytes32",
          "name": "_leaf",
          "type": "bytes32"
        },
        {
          "internalType": "bytes32[]",
          "name": "_merkleProof",
          "type": "bytes32[]"
        }
      ],
      "name": "verify",
      "outputs": [
        {
          "internalType": "bool",
          "name": "",
          "type": "bool"
        }
      ],
      "stateMutability": "view",
      "type": "function"
    }
  ],
  "transactionHash": "0x10c7e46fce4e9a03df3499ef6fb0d6b1bae18d908414448aab5c7a9aa6b36cd8",
  "args": [],
  "numDeployments": 1,
  "solcInputHash": "603662079f6cc1e1aa8785e12a7ac39a",
  "bytecode": "0x608060405234801561001057600080fd5b506102f4806100206000396000f3fe608060405234801561001057600080fd5b506004361061004c5760003560e01c8063079cf76e146100515780631e1a81a21461009a5780636df4d241146100af578063dab5f340146100d2575b600080fd5b61008761005f3660046101d3565b73ffffffffffffffffffffffffffffffffffffffff1660009081526020819052604090205490565b6040519081526020015b60405180910390f35b33600090815260208190526040902054610087565b6100c26100bd366004610210565b6100f4565b6040519015158152602001610091565b6100f26100e036600461028f565b33600090815260208190526040902055565b005b600061014183838080602002602001604051908101604052809392919081815260200183836020028082843760009201829052503381526020819052604090205492508891506101499050565b949350505050565b600082610156858461015f565b14949350505050565b600081815b84518110156101cb576000858281518110610181576101816102a8565b602002602001015190508083116101a757600083815260208290526040902092506101b8565b600081815260208490526040902092505b50806101c3816102be565b915050610164565b509392505050565b6000602082840312156101e557600080fd5b813573ffffffffffffffffffffffffffffffffffffffff8116811461020957600080fd5b9392505050565b60008060006040848603121561022557600080fd5b83359250602084013567ffffffffffffffff8082111561024457600080fd5b818601915086601f83011261025857600080fd5b81358181111561026757600080fd5b8760208260051b850101111561027c57600080fd5b6020830194508093505050509250925092565b6000602082840312156102a157600080fd5b5035919050565b634e487b7160e01b600052603260045260246000fd5b60006000198214156102e057634e487b7160e01b600052601160045260246000fd5b506001019056fea164736f6c6343000809000a",
  "devdoc": {
    "kind": "dev",
    "methods": {},
    "version": 1
  },
  "userdoc": {
    "kind": "user",
    "methods": {},
    "version": 1
  },
  "storageLayout": {
    "storage": [
      {
        "astId": 99,
        "contract": "contracts/Verifier.sol:Verifier",
        "label": "roots",
        "offset": 0,
        "slot": "0",
        "type": "t_mapping(t_address,t_bytes32)"
      }
    ],
    "types": {
      "t_address": {
        "encoding": "inplace",
        "label": "address",
        "numberOfBytes": "20"
      },
      "t_bytes32": {
        "encoding": "inplace",
        "label": "bytes32",
        "numberOfBytes": "32"
      },
      "t_mapping(t_address,t_bytes32)": {
        "encoding": "mapping",
        "key": "t_address",
        "label": "mapping(address => bytes32)",
        "numberOfBytes": "32",
        "value": "t_bytes32"
      }
    }
  }
}